:020000000A28CC
:10000800FE000308F7000A08F8007E28522971301C
:1000180083168F000F3090001C30850083128501F5
:100028009501073099009F0183169F0181171516C6
:100038008B010B178B177D3092004F308312920083
:1000480083168C100B178B170130EE20C520210862
:10005800AC002008AB0085193B28851D31280530E8
:10006800EE20AB01AC01AD01AD0A83168C148312EE
:10007800051A4E28051E3E280130EE2085194B280A
:10008800851D44280430EE20FF30AB00AC008514F9
:1000980083168C148312051974282D0803196428F3
:1000A800051D542883168C108312AD01FB01F9013C
:1000B800FA012C08A1002B08A00037210A30732868
:1000C800051D642883168C1083128510C52021080D
:1000D800AC002008AB00FB01F901FA010230EE2068
:1000E8003430AA00F130A900A90B7828AA0B782887
:1000F8007D283B2883122D086430031997287B023A
:10010800031CBB2885161A30F600F830F500F50BED
:100118008B28F60B8B28640083128512FB01AB0A2F
:100128000319AC0ABB287B02031CAA2885161A30BF
:10013800F600F830F500F50B9F28F60B9F286400B1
:1001480083128512FB01F90A0319FA0A2C087A02AC
:10015800031DB0282B087902031CBB2883168C10BA
:1001680083128510F901FA01FB0102301321FB0A01
:1001780083128C1078088A0077088300FE0E7E0EA2
:10018800090083169B011C141A088312A500A601F6
:100198000230A4000330A300BA30A200A20BD22878
:1001A800A30BD228A40BD228013083169B001C1461
:1001B8001A088312A700A8012508A600A50125088A
:1001C800A7070318A80A2608A8072808A1002708CF
:1001D800A00008008312A300A40123082402031826
:1001E800080005140230A2000330A100BA30A000B4
:1001F800A00BFC28A10BFC28A20BFC2883120510DD
:100208000230A2000330A100BA30A000A00B0A29D6
:10021800A10B0A29A20B0A298312A40AF128F300C8
:10022800F4017308740203180800831205140230DD
:10023800F2000330F100BA30F000F00B2129F10B85
:100248002129F20B2129831205100230F200033014
:10025800F100BA30F000F00B2F29F10B2F29F20B27
:100268002F29F40A152983169B0183122108482196
:100278009C183C2901309B008312200848219C18B7
:1002880043298B171C11080083169A001C158B1321
:1002980055309D00AA309D009C140800F901FA0110
:0C02A800FB01AB01AC01AD0183010B2890
:02400E00C430BC
:00000001FF
